{
  "contractName": "Voting",
  "abi": [
    {
      "inputs": [
        {
          "internalType": "uint256",
          "name": "_votingBeginTime",
          "type": "uint256"
        },
        {
          "internalType": "uint256",
          "name": "_votingEndTime",
          "type": "uint256"
        }
      ],
      "stateMutability": "nonpayable",
      "type": "constructor"
    },
    {
      "inputs": [
        {
          "internalType": "address",
          "name": "",
          "type": "address"
        }
      ],
      "name": "ballotNumber",
      "outputs": [
        {
          "internalType": "uint256",
          "name": "",
          "type": "uint256"
        }
      ],
      "stateMutability": "view",
      "type": "function",
      "constant": true
    },
    {
      "inputs": [],
      "name": "chairperson",
      "outputs": [
        {
          "internalType": "address",
          "name": "",
          "type": "address"
        }
      ],
      "stateMutability": "view",
      "type": "function",
      "constant": true
    },
    {
      "inputs": [
        {
          "internalType": "uint256",
          "name": "",
          "type": "uint256"
        }
      ],
      "name": "proposals",
      "outputs": [
        {
          "internalType": "string",
          "name": "name",
          "type": "string"
        },
        {
          "internalType": "string",
          "name": "content",
          "type": "string"
        },
        {
          "internalType": "uint256",
          "name": "voteCount",
          "type": "uint256"
        },
        {
          "internalType": "address",
          "name": "proposer",
          "type": "address"
        }
      ],
      "stateMutability": "view",
      "type": "function",
      "constant": true
    },
    {
      "inputs": [
        {
          "internalType": "address",
          "name": "",
          "type": "address"
        }
      ],
      "name": "voters",
      "outputs": [
        {
          "internalType": "uint256",
          "name": "weight",
          "type": "uint256"
        },
        {
          "internalType": "bool",
          "name": "voted",
          "type": "bool"
        },
        {
          "internalType": "uint256",
          "name": "vote",
          "type": "uint256"
        }
      ],
      "stateMutability": "view",
      "type": "function",
      "constant": true
    },
    {
      "inputs": [],
      "name": "votingBeginTime",
      "outputs": [
        {
          "internalType": "uint256",
          "name": "",
          "type": "uint256"
        }
      ],
      "stateMutability": "view",
      "type": "function",
      "constant": true
    },
    {
      "inputs": [],
      "name": "votingEndTime",
      "outputs": [
        {
          "internalType": "uint256",
          "name": "",
          "type": "uint256"
        }
      ],
      "stateMutability": "view",
      "type": "function",
      "constant": true
    },
    {
      "inputs": [
        {
          "internalType": "uint256",
          "name": "timeBySec",
          "type": "uint256"
        }
      ],
      "name": "extendVoting",
      "outputs": [],
      "stateMutability": "nonpayable",
      "type": "function"
    },
    {
      "inputs": [
        {
          "internalType": "address",
          "name": "voter",
          "type": "address"
        },
        {
          "internalType": "uint256",
          "name": "weight",
          "type": "uint256"
        }
      ],
      "name": "giveRightToVote",
      "outputs": [],
      "stateMutability": "nonpayable",
      "type": "function"
    },
    {
      "inputs": [
        {
          "internalType": "string",
          "name": "pName",
          "type": "string"
        },
        {
          "internalType": "string",
          "name": "pContent",
          "type": "string"
        }
      ],
      "name": "createProposal",
      "outputs": [],
      "stateMutability": "nonpayable",
      "type": "function"
    },
    {
      "inputs": [
        {
          "internalType": "uint256",
          "name": "proposal",
          "type": "uint256"
        }
      ],
      "name": "vote",
      "outputs": [],
      "stateMutability": "nonpayable",
      "type": "function"
    },
    {
      "inputs": [],
      "name": "winningProposal",
      "outputs": [
        {
          "internalType": "uint256",
          "name": "",
          "type": "uint256"
        }
      ],
      "stateMutability": "view",
      "type": "function",
      "constant": true
    }
  ],
  "bytecode": "0x608060405234801561001057600080fd5b506040516112433803806112438339818101604052604081101561003357600080fd5b810190808051906020019092919080519060200190929190505050816001819055508060028190555033600460006101000a81548173ffffffffffffffffffffffffffffffffffffffff021916908373ffffffffffffffffffffffffffffffffffffffff160217905550600160036000600460009054906101000a900473ffffffffffffffffffffffffffffffffffffffff1673ffffffffffffffffffffffffffffffffffffffff1673ffffffffffffffffffffffffffffffffffffffff1681526020019081526020016000206000018190555060006005819055505050611123806101206000396000f3fe608060405234801561001057600080fd5b50600436106100a95760003560e01c8063609ff1bd11610071578063609ff1bd146102af57806365e481e2146102cd578063a3ec138d1461041f578063aeb45f5a14610489578063ce50aa7d146104e1578063f3e02cf71461052f576100a9565b80630121b93f146100ae578063013cf08b146100dc5780631ea736e0146102295780632e4176cf146102475780633f67c77c14610291575b600080fd5b6100da600480360360208110156100c457600080fd5b810190808035906020019092919050505061055d565b005b610108600480360360208110156100f257600080fd5b8101908080359060200190929190505050610808565b6040518080602001806020018581526020018473ffffffffffffffffffffffffffffffffffffffff1673ffffffffffffffffffffffffffffffffffffffff168152602001838103835287818151815260200191508051906020019080838360005b83811015610184578082015181840152602081019050610169565b50505050905090810190601f1680156101b15780820380516001836020036101000a031916815260200191505b50838103825286818151815260200191508051906020019080838360005b838110156101ea5780820151818401526020810190506101cf565b50505050905090810190601f1680156102175780820380516001836020036101000a031916815260200191505b50965050505050505060405180910390f35b610231610995565b6040518082815260200191505060405180910390f35b61024f61099b565b604051808273ffffffffffffffffffffffffffffffffffffffff1673ffffffffffffffffffffffffffffffffffffffff16815260200191505060405180910390f35b6102996109c1565b6040518082815260200191505060405180910390f35b6102b76109c7565b6040518082815260200191505060405180910390f35b61041d600480360360408110156102e357600080fd5b810190808035906020019064010000000081111561030057600080fd5b82018360208201111561031257600080fd5b8035906020019184600183028401116401000000008311171561033457600080fd5b91908080601f016020809104026020016040519081016040528093929190818152602001838380828437600081840152601f19601f8201169050808301925050505050505091929192908035906020019064010000000081111561039757600080fd5b8201836020820111156103a957600080fd5b803590602001918460018302840111640100000000831117156103cb57600080fd5b91908080601f016020809104026020016040519081016040528093929190818152602001838380828437600081840152601f19601f820116905080830192505050505050509192919290505050610b38565b005b6104616004803603602081101561043557600080fd5b81019080803573ffffffffffffffffffffffffffffffffffffffff169060200190929190505050610caf565b6040518084815260200183151515158152602001828152602001935050505060405180910390f35b6104cb6004803603602081101561049f57600080fd5b81019080803573ffffffffffffffffffffffffffffffffffffffff169060200190929190505050610ce6565b6040518082815260200191505060405180910390f35b61052d600480360360408110156104f757600080fd5b81019080803573ffffffffffffffffffffffffffffffffffffffff16906020019092919080359060200190929190505050610cfe565b005b61055b6004803603602081101561054557600080fd5b8101908080359060200190929190505050610eb5565b005b6001544211801561056f575060025442105b6105e1576040517f08c379a000000000000000000000000000000000000000000000000000000000815260040180806020018281038252600c8152602001807f566f74696e6720656e646564000000000000000000000000000000000000000081525060200191505060405180910390fd5b60001515600360003373ffffffffffffffffffffffffffffffffffffffff1673ffffffffffffffffffffffffffffffffffffffff16815260200190815260200160002060010160009054906101000a900460ff161515146106aa576040517f08c379a000000000000000000000000000000000000000000000000000000000815260040180806020018281038252600f8152602001807f796f75206861766520766f7465642e000000000000000000000000000000000081525060200191505060405180910390fd5b600360003373ffffffffffffffffffffffffffffffffffffffff1673ffffffffffffffffffffffffffffffffffffffff16815260200190815260200160002060000154600082815481106106fa57fe5b9060005260206000209060040201600201819055506001600360003373ffffffffffffffffffffffffffffffffffffffff1673ffffffffffffffffffffffffffffffffffffffff16815260200190815260200160002060010160006101000a81548160ff02191690831515021790555080600360003373ffffffffffffffffffffffffffffffffffffffff1673ffffffffffffffffffffffffffffffffffffffff168152602001908152602001600020600201819055506005600081548092919060010191905055600660003373ffffffffffffffffffffffffffffffffffffffff1673ffffffffffffffffffffffffffffffffffffffff1681526020019081526020016000208190555050565b6000818154811061081557fe5b9060005260206000209060040201600091509050806000018054600181600116156101000203166002900480601f0160208091040260200160405190810160405280929190818152602001828054600181600116156101000203166002900480156108c15780601f10610896576101008083540402835291602001916108c1565b820191906000526020600020905b8154815290600101906020018083116108a457829003601f168201915b505050505090806001018054600181600116156101000203166002900480601f01602080910402602001604051908101604052809291908181526020018280546001816001161561010002031660029004801561095f5780601f106109345761010080835404028352916020019161095f565b820191906000526020600020905b81548152906001019060200180831161094257829003601f168201915b5050505050908060020154908060030160009054906101000a900473ffffffffffffffffffffffffffffffffffffffff16905084565b60025481565b600460009054906101000a900473ffffffffffffffffffffffffffffffffffffffff1681565b60015481565b60006002544211610a40576040517f08c379a000000000000000000000000000000000000000000000000000000000815260040180806020018281038252600e8152602001807f68617665206e6f7420656e64656400000000000000000000000000000000000081525060200191505060405180910390fd5b6000808054905011610aba576040517f08c379a000000000000000000000000000000000000000000000000000000000815260040180806020018281038252600c8152602001807f6e6f2070726f706f73616c73000000000000000000000000000000000000000081525060200191505060405180910390fd5b6000809050600080905060008090505b600080549050811015610b2f578260008281548110610ae557fe5b9060005260206000209060040201600201541115610b225760008181548110610b0a57fe5b90600052602060002090600402016002015492508091505b8080600101915050610aca565b50809250505090565b6001544210610baf576040517f08c379a00000000000000000000000000000000000000000000000000000000081526004018080602001828103825260128152602001807f566f74696e67206861732073746172746564000000000000000000000000000081525060200191505060405180910390fd5b610bb761100a565b6040518060800160405280848152602001838152602001600081526020013373ffffffffffffffffffffffffffffffffffffffff16815250905060008190806001815401808255809150506001900390600052602060002090600402016000909190919091506000820151816000019080519060200190610c39929190611048565b506020820151816001019080519060200190610c56929190611048565b506040820151816002015560608201518160030160006101000a81548173ffffffffffffffffffffffffffffffffffffffff021916908373ffffffffffffffffffffffffffffffffffffffff1602179055505050505050565b60036020528060005260406000206000915090508060000154908060010160009054906101000a900460ff16908060020154905083565b60066020528060005260406000206000915090505481565b600460009054906101000a900473ffffffffffffffffffffffffffffffffffffffff1673ffffffffffffffffffffffffffffffffffffffff163373ffffffffffffffffffffffffffffffffffffffff1614610dc1576040517f08c379a00000000000000000000000000000000000000000000000000000000081526004018080602001828103825260128152602001807f5065726d697373696f6e2064656e6965642e000000000000000000000000000081525060200191505060405180910390fd5b600360008373ffffffffffffffffffffffffffffffffffffffff1673ffffffffffffffffffffffffffffffffffffffff16815260200190815260200160002060010160009054906101000a900460ff1615610e1b57600080fd5b6000600360008473ffffffffffffffffffffffffffffffffffffffff1673ffffffffffffffffffffffffffffffffffffffff1681526020019081526020016000206000015414610e6a57600080fd5b80600360008473ffffffffffffffffffffffffffffffffffffffff1673ffffffffffffffffffffffffffffffffffffffff168152602001908152602001600020600001819055505050565b600460009054906101000a900473ffffffffffffffffffffffffffffffffffffffff1673ffffffffffffffffffffffffffffffffffffffff163373ffffffffffffffffffffffffffffffffffffffff1614610f78576040517f08c379a00000000000000000000000000000000000000000000000000000000081526004018080602001828103825260128152602001807f5065726d697373696f6e2064656e6965642e000000000000000000000000000081525060200191505060405180910390fd5b60015442118015610f8a575060025442105b610ffc576040517f08c379a000000000000000000000000000000000000000000000000000000000815260040180806020018281038252600c8152602001807f566f74696e6720656e646564000000000000000000000000000000000000000081525060200191505060405180910390fd5b806002540160028190555050565b6040518060800160405280606081526020016060815260200160008152602001600073ffffffffffffffffffffffffffffffffffffffff1681525090565b828054600181600116156101000203166002900490600052602060002090601f016020900481019282601f1061108957805160ff19168380011785556110b7565b828001600101855582156110b7579182015b828111156110b657825182559160200191906001019061109b565b5b5090506110c491906110c8565b5090565b6110ea91905b808211156110e65760008160009055506001016110ce565b5090565b9056fea26469706673582212202a4a31c6ed3c3b0819d7ecfb52a9238d75507e9c7f4549b0894b5ad7cde9a74664736f6c63430006060033",
  "immutableReferences": {},
  "source": "// SPDX-License-Identifier: GPL-3.0\npragma solidity ^0.6.6;\n\ncontract Voting {\n    \n    Proposal[] public proposals;\n    uint public votingBeginTime;\n    uint public votingEndTime;\n    mapping(address => Voter) public voters;\n    address public chairperson;\n    uint private _ballotCounter;\n\n        \n    mapping(address => uint) public ballotNumber;\n\n\n    struct Proposal {\n        string name;\n        string content;\n        uint voteCount;\n        address proposer;\n    }\n    \n    struct Voter {\n        uint weight;\n        bool voted;\n        uint vote;\n    }\n    \n    modifier onlyChairPerson() {\n        require(msg.sender == chairperson, \"Permission denied.\");\n        _;\n    }\n    \n    modifier checkVotingPeriod() {\n        require(now > votingBeginTime && now < votingEndTime, 'Voting ended');\n        _;\n    }\n    \n    modifier checkVotingStart() {\n        require(now < votingBeginTime, 'Voting has started');\n        _;\n    }\n    \n    modifier checkVotingEnd() {\n        require(now > votingEndTime, 'have not ended');\n        _;\n    }\n    \n    // A voting will begin and end at the appointed time.\n    constructor(\n        uint _votingBeginTime,\n        uint _votingEndTime\n        ) public {\n        votingBeginTime = _votingBeginTime;\n        votingEndTime = _votingEndTime;\n        chairperson = msg.sender;\n        voters[chairperson].weight = 1;\n        _ballotCounter = 0;\n    }\n    \n    function extendVoting(uint timeBySec) public onlyChairPerson checkVotingPeriod {\n        votingEndTime = votingEndTime + timeBySec;\n    }\n    \n    function giveRightToVote(address voter, uint weight) public onlyChairPerson {\n        require(!voters[voter].voted);\n        require(voters[voter].weight == 0);\n        \n        voters[voter].weight = weight;\n    }\n    \n    // Before a voting, everyone can propose their proposals.\n    function createProposal(string memory pName, string memory pContent) public checkVotingStart {\n        Proposal memory newProposal = Proposal({\n            name: pName,\n            content: pContent,\n            voteCount: 0,\n            proposer: msg.sender\n        });\n        \n        proposals.push(newProposal);\n    }\n    \n    // During a voting, everyone can vote & choose their favorite proposals\n    function vote(uint proposal) public checkVotingPeriod {\n        require(voters[msg.sender].voted == false, 'you have voted.');\n        proposals[proposal].voteCount = voters[msg.sender].weight;\n        voters[msg.sender].voted = true;\n        voters[msg.sender].vote = proposal;\n        ballotNumber[msg.sender] = _ballotCounter++;\n    }\n    \n    /* After the voting ends, the proposal with the highest votes will become \n    the winner proposal and will be announced.\n    */\n    function winningProposal() public checkVotingEnd view returns(uint)  {\n        require(proposals.length > 0, 'no proposals');\n        uint winningVoteCount = 0;\n        uint winnerIndex = 0;\n        for (uint i = 0; i < proposals.length; i++) {\n            if (proposals[i].voteCount > winningVoteCount) {\n                winningVoteCount = proposals[i].voteCount;\n                winnerIndex = i;\n            }\n        }\n        return winnerIndex;\n    }\n    \n    \n    \n}",
  "sourcePath": "/Users/sychen/hw7/contracts/Voting.sol",
  "compiler": {
    "name": "solc",
    "version": "0.6.6+commit.6c089d02.Emscripten.clang"
  },
  "schemaVersion": "3.2.5",
  "updatedAt": "2021-04-27T08:19:03.544Z",
  "networkType": "ethereum",
  "devdoc": {
    "methods": {}
  },
  "userdoc": {
    "methods": {}
  }
}